{
  "contractName": "Count",
  "abi": [
    {
      "constant": true,
      "inputs": [],
      "name": "count",
      "outputs": [
        {
          "name": "",
          "type": "uint256"
        }
      ],
      "payable": false,
      "stateMutability": "view",
      "type": "function"
    },
    {
      "constant": true,
      "inputs": [],
      "name": "lastParticipant",
      "outputs": [
        {
          "name": "",
          "type": "address"
        }
      ],
      "payable": false,
      "stateMutability": "view",
      "type": "function"
    },
    {
      "constant": false,
      "inputs": [],
      "name": "plus",
      "outputs": [],
      "payable": false,
      "stateMutability": "nonpayable",
      "type": "function"
    },
    {
      "constant": false,
      "inputs": [],
      "name": "minus",
      "outputs": [],
      "payable": false,
      "stateMutability": "nonpayable",
      "type": "function"
    }
  ],
  "bytecode": "0x60806040526000805534801561001457600080fd5b50610218806100246000396000f300608060405260043610610062576000357c0100000000000000000000000000000000000000000000000000000000900463ffffffff16806306661abd1461006757806314434fa51461009257806318b0c3fd146100a9578063bfe7e4e3146100c0575b600080fd5b34801561007357600080fd5b5061007c610117565b6040518082815260200191505060405180910390f35b34801561009e57600080fd5b506100a761011d565b005b3480156100b557600080fd5b506100be610172565b005b3480156100cc57600080fd5b506100d56101c6565b604051808273ffffffffffffffffffffffffffffffffffffffff1673ffffffffffffffffffffffffffffffffffffffff16815260200191505060405180910390f35b60005481565b60008081548092919060019003919050555033600160006101000a81548173ffffffffffffffffffffffffffffffffffffffff021916908373ffffffffffffffffffffffffffffffffffffffff160217905550565b600080815480929190600101919050555033600160006101000a81548173ffffffffffffffffffffffffffffffffffffffff021916908373ffffffffffffffffffffffffffffffffffffffff160217905550565b600160009054906101000a900473ffffffffffffffffffffffffffffffffffffffff16815600a165627a7a72305820a3416228f808391613b5e55b8e0258bb640d787a38218c26ae3d7b8e2d9ffab10029",
  "source": "pragma solidity 0.4.24;\n/*\n  * storage variables *\n  Count contract has 2 public storage variables.\n\n  1) count - By default, count's value is 0,\n             it could increase or decrease through `plus` or `minus` function.\n  2) lastParticipant - lastParticipant is last person's address\n                       who sent a transaction(called plus or minus) to Count contract.\n  Count contract.\n\n  * functions *\n  Count contract has 2 public functions.\n  1) plus - increase `count` storage variable by 1. (+1)\n  2) minus - decrease `count` storage variable by 1. (-1)\n */\n\ncontract Count {\n  uint public count = 0;\n  address public lastParticipant;\n\n  function plus() public {\n    count++;\n    lastParticipant = msg.sender;\n  }\n\n  function minus() public {\n    count--;\n    lastParticipant = msg.sender;\n  }\n}\n",
  "sourcePath": "/Users/bong/workspace/countbapp/contracts/Count.sol",
  "compiler": {
    "name": "solc",
    "version": "0.4.24+commit.e67f0147.Emscripten.clang"
  },
  "schemaVersion": "3.0.11",
  "updatedAt": "2019-08-26T08:16:58.344Z",
  "devdoc": {
    "methods": {}
  },
  "userdoc": {
    "methods": {}
  }
}